:100000000C9462000C948A000C948A000C940C13DB
:100010000C940C130C940C130C948A000C948A000E
:100020000C948A000C948A000C948A000C94351469
:100030000C948A000C948A000C948A000C948A0018
:100040000C94C2120C948A000C9490120C946A12B4
:100050000C948A000C948A000C948A000C948A00F8
:100060000C9416130C948A00000000002400270052
:100070002A0000000000250028002B0000000000DE
:1000800023002600290004040404040404040202DA
:100090000202020203030303030301020408102007
:1000A0004080010204081020010204081020000012
:1000B0000008000201000003040700000000000027
:1000C0000000361511241FBECFEFD8E0DEBFCDBF34
:1000D00012E0A0E0B1E0E0E4FAE302C005900D9286
:1000E000AC30B107D9F725E0ACE0B2E001C01D9219
:1000F000A234B207E1F710E0C2E6D0E004C02197D5
:10010000FE010E94B91BC136D107C9F70E944A16E9
:100110000C941E1D0C940000862FE091F402F091C7
:10012000F502309711F0BA0109940895862FE091F5
:10013000F202F091F302309711F0BA010994089598
:10014000862FE091F002F091F102309711F0BA01A0
:1001500009940895862FE091EE02F091EF02309716
:1001600011F0BA0109940895862FE091EC02F09104
:10017000ED02309711F0BA0109940895862FE091AD
:10018000EA02F091EB02309711F0BA010994089558
:100190000895862F642FE091F602F091F7023097D0
:1001A00011F0A90109940895E091F802F091F90283
:1001B000309709F009940895CF93DF93FC01A08153
:1001C000B181109701F1EC01ED91FC911197019033
:1001D000F081E02D69EFCD01099588819981DC01DD
:1001E000ED91FC910190F081E02D62E0099588810C
:1001F0009981DC01ED91FC910190F081E02D65E0A9
:10020000DF91CF910994DF91CF910895A091A1043E
:10021000B091A204ED91FC9111970190F081E02D35
:10022000682FCD0109941F93CF93DF93182FEB0113
:1002300080916804909169046817790760F480914F
:10024000660490916704C80FD91F188380E0DF917E
:10025000CF911F910895E0919504F0919604309705
:1002600011F481E0F4CF81E08093650480918104F2
:100270009091820409958091680490916904C8174F
:10028000D90778F7DCCFCF93DF93EC01FB0130E0A7
:1002900020E0C901880F991F8C179D0778F44081D1
:1002A000DB014D93BD011197918197959927979502
:1002B000942B9C932F5F3F4F3296EBCFC901DF9178
:1002C000CF910895009721F0805C9F4F0C94DC0043
:1002D0000895AF92BF92CF92DF92EF92FF920F9369
:1002E0001F93CF93DF936C017B018B01040F151FCC
:1002F000EB015E01AE18BF08C017D10759F0699134
:10030000D601ED91FC910190F081E02DC601099597
:10031000892B79F7C501DF91CF911F910F91FF9044
:10032000EF90DF90CF90BF90AF900895FC01538D78
:10033000448D252F30E0842F90E0821B930B5417BF
:1003400010F0CF96089501970895FC01918D828D4C
:10035000981761F0A28DAE0FBF2FB11D5D968C91E5
:10036000928D9F5F9F73928F90E008958FEF9FEF24
:100370000895FC01918D828D981731F0828DE80FE0
:10038000F11D858D90E008958FEF9FEF0895FC019A
:10039000918D228D892F90E0805C9F4F821B910967
:1003A0008F739927089586E893E00E94C70121E0A2
:1003B000892B09F420E0822F089580E090E0892BBA
:1003C00029F00E94D30181110C9400000895FC01D2
:1003D000A48DA80FB92FB11DA35ABF4F2C91848DA6
:1003E00090E001968F739927848FA689B7892C9303
:1003F000A089B1898C91837080648C93938D848D56
:10040000981306C00288F389E02D80818F7D808358
:100410000895EF92FF920F931F93CF93DF93EC0118
:1004200081E0888F9B8D8C8D98131AC0E889F9899B
:10043000808185FF15C09FB7F894EE89FF8960839E
:10044000E889F98980818370806480839FBF81E01F
:1004500090E0DF91CF911F910F91FF90EF90089561
:10046000F62E0B8D10E00F5F1F4F0F731127E02E3C
:100470008C8D8E110CC00FB607FCFACFE889F98974
:10048000808185FFF5CFCE010E94E701F1CFEB8D92
:10049000EC0FFD2FF11DE35AFF4FF0829FB7F89448
:1004A0000B8FEA89FB8980818062CFCFCF93DF9366
:1004B000EC01888D8823B9F0AA89BB89E889F9897C
:1004C0008C9185FD03C0808186FD0DC00FB607FCB1
:1004D000F7CF8C9185FFF2CF808185FFEDCFCE01E4
:1004E0000E94E701E9CFDF91CF910895833081F039
:1004F00028F4813099F08230A9F008958730A9F06E
:100500008830C9F08430B1F4809180008F7D03C0C1
:10051000809180008F7780938000089584B58F77D5
:1005200084BD089584B58F7DFBCF8091B0008F7717
:100530008093B00008958091B0008F7DF9CFCF9364
:10054000DF93282F30E0F901E255FF4F8491F90144
:10055000E656FF4FD491F901EA57FF4FC491CC23DF
:10056000A1F081110E947602EC2FF0E0EE0FFF1F48
:10057000E458FF4FA591B491EC91ED2381E090E018
:1005800009F480E0DF91CF91089580E090E0FACF08
:100590001F93CF93DF93282F30E0F901E255FF4FEF
:1005A0008491F901E656FF4FD491F901EA57FF4FC4
:1005B000C491CC23A9F0162F81110E947602EC2F52
:1005C000F0E0EE0FFF1FEE58FF4FA591B4918FB7EB
:1005D000F894EC91111108C0D095DE23DC938FBF05
:1005E000DF91CF911F910895DE2BF8CFCF93DF934A
:1005F00090E0FC01E656FF4F24918A579F4FFC0183
:1006000084918823C9F090E0880F991FFC01E85974
:10061000FF4FA591B491FC01EE58FF4FC591D491C5
:1006200061110DC09FB7F8948C91209582238C9313
:100630008881282328839FBFDF91CF91089562305E
:1006400051F49FB7F8943C91822F809583238C932B
:10065000E8812E2BEFCF8FB7F894EC912E2B2C93B3
:100660008FBFEACF8E3008F08E5087708064809301
:100670007C0080917A00806480937A0080917A0077
:1006800086FDFCCF809178009091790008953FB766
:10069000F8948091E6029091E702A091E802B0916F
:1006A000E90226B5A89B05C02F3F19F00196A11DB0
:1006B000B11D3FBFBA2FA92F982F8827BC01CD01AC
:1006C000620F711D811D911D42E0660F771F881F0B
:1006D000991F4A95D1F708958F929F92AF92BF923A
:1006E000CF92DF92EF92FF926B017C010E94470351
:1006F0004B015C01C114D104E104F104B9F00E9482
:100700004703681979098A099B09683E7340810586
:10071000910580F321E0C21AD108E108F10888EEC2
:10072000880E83E0981EA11CB11CE4CFFF90EF90CF
:10073000DF90CF90BF90AF909F908F9008954F9291
:100740005F926F927F928F929F92AF92BF92DF9251
:10075000EF92FF920F931F93CF93DF9300D000D0BF
:100760001F92CDB7DEB7182F19821A821B821C8206
:100770001D8261E00E94F60260E0812F0E94C802A3
:1007800062E170E080E090E00E946C0361E0812F04
:100790000E94C8028BE990E00197F1F760E0812F99
:1007A0000E94F60251E1E52E57E2F52E812F0E94BC
:1007B0009F02892BD9F481E0E81AF108B9F78EEF8E
:1007C0009FEF0F900F900F900F900F90DF91CF91B0
:1007D0001F910F91FF90EF90DF90BF90AF909F908F
:1007E0008F907F906F905F904F90089541E1E42E3D
:1007F00047E2F42E812F0E949F02019729F481E0A5
:10080000E81AF108B9F7DBCF28E2E22EF12C07E075
:10081000D12CAA24A394B12C91E1892E97E2992E90
:10082000812F0E949F02892B29F481E0881A910868
:10083000B9F7C5CF0E9447032B013C0181E1882E07
:1008400087E2982E812F0E949F02019729F481E070
:10085000881A9108B9F7B3CF0E9447036419750944
:1008600086099709693271058105910578F0E1E003
:10087000F0E0EC0FFD1FED0DF11D80819501002EC4
:1008800001C0220F0A94EAF7822B8083011121C054
:10089000D39407E081E0E81AF10809F0BDCF89811F
:1008A000282F30E030938303209382032B81422F43
:1008B00050E05093850340938403280F81E090E03B
:1008C0003D81231302C090E080E0919581959109CC
:1008D00078CF0150DFCF5F926F927F928F929F927D
:1008E000AF92BF92CF92DF92EF92FF920F931F933E
:1008F000CF93DF935C016901DA015C90232B19F43B
:10090000CC24CA94DC2C8A013A01660E771ED0E012
:10091000C0E0F12CE12C87E0882E912CF50180813C
:100920009181D8016C910C2E01C0660F0A94EAF7F0
:1009300065296F77DC01ED91FC910190F081E02D4C
:100940000995BFEFEB1AFB0AF801608170E0C40162
:100950008C1B9D0B02C0759567958A95E2F7562E04
:100960002196C730D10558F1CE14DF0441F1D501ED
:100970008D919C91652D6F77DC01ED91FC9101903B
:10098000F081E02D0995BFEFEB1AFB0A551C5524A9
:10099000551C2797E6CFEC14FD0408F4BFCFDF9178
:1009A000CF911F910F91FF90EF90DF90CF90BF906C
:1009B000AF909F908F907F906F905F9008950F5FA2
:1009C0001F4F6016710639F7209749F3EC14FD04A8
:1009D00030F7F5018081918161E070E001C0660F20
:1009E000CA95EAF761506521DC01ED91FC91019017
:1009F000F081E02DDF91CF911F910F91FF90EF904B
:100A0000DF90CF90BF90AF909F908F907F906F902E
:100A10005F9009941F93CF93DF9300D0CDB7DEB7DB
:100A2000182F7A83698380916304909164040097FE
:100A3000C9F0DC01ED91FC910190F081E02D1031C5
:100A4000B8F461157044A0F4612F606E099522E03E
:100A500030E0AE014F5F5F4F62E070E083E694E00C
:100A60000E946B040F900F90DF91CF911F9108951A
:100A700060EF09958091630490916404DC01ED912D
:100A8000FC910190F081E02D6FE60995809163045F
:100A900090916404DC01ED91FC910190F081E02DD6
:100AA000612F099522E030E0AE014F5F5F4F62E0B9
:100AB00070E083E694E00E946B048091630490915F
:100AC0006404DC01ED91FC910190F081E02D67EF71
:100AD0000995C8CFEF92FF920F931F93CF93DF93A7
:100AE000C82F80916304909164040097C9F17A0142
:100AF0008B01DC01ED91FC910190F081E02D60EF24
:100B000009958091630490916404DC01ED91FC915E
:100B10000190F081E02D6C2F0995E7010E0D1F1D4E
:100B2000C017D10759F030E020E0AE0161E070E07D
:100B300083E694E00E946B042196F2CF80916304D7
:100B400090916404DC01ED91FC910190F081E02D25
:100B500067EFDF91CF911F910F91FF90EF90099474
:100B6000DF91CF911F910F91FF90EF900895CF9259
:100B7000DF92EF92FF920F931F93CF93DF93FC01CD
:100B8000E058FF4FE080EE2009F45CC0EC01C05C4F
:100B9000DF4FA881B981109709F454C0FC01EF57C9
:100BA000FF4FC080D180F60111810081ED91FC9151
:100BB00011970190F081E02D60EFCD0109958881BA
:100BC0009981DC01ED91FC910190F081E02D69E7C4
:100BD000099588819981DC01ED91FC910190F0816A
:100BE000E02D602F099588819981DC01ED91FC91C0
:100BF0000190F081E02D612F0995F12C01E010E0CA
:100C00000F5F1F4FE016F10659F030E020E0A6011B
:100C1000400F511F61E070E0CE010E946B04F0CFE5
:100C200088819981DC01ED91FC910190F081E02DAA
:100C300067EFDF91CF911F910F91FF90EF90DF90C1
:100C4000CF900994DF91CF911F910F91FF90EF907A
:100C5000DF90CF900895009711F00C94B705089598
:100C60002091BE02260F3327331F21323105ECF4C9
:100C700020915803FC0190E080E0243069F082E08C
:100C80000895A091BE022191AC0144565D4FA40F7E
:100C9000B52FB11D2C930196861798F38091BE0253
:100CA000680F6093BE0280E0089581E0089510927D
:100CB000580381E0809357031092320361E082E190
:100CC0000E94C80261E083E10E94C802E9EBF0E003
:100CD00080818E7F808380818D7F808388E4809374
:100CE000B80085E48093BC000895CF93DF9391E032
:100CF00090939B028823B9F0C091B800D091BA00BC
:100D00008091BC008A7B8093BC0060E082E10E94FD
:100D1000C80260E083E10E94C8020E945706D09397
:100D2000BA00C093B800DF91CF9108958F929F923F
:100D3000AF92BF92CF92DF92EF92FF920F931F93E9
:100D4000CF93DF93D0918103D13208F0D7C0182F11
:100D5000C09180030E9447036B017C01809158037E
:100D600081116BC082E080935803109357038FEF7B
:100D70008093560310925503D0935403A0E6B3E03A
:100D8000E4E3F3E080E0D81391C010923303809144
:100D90003303CC0FC82BC0933303809132038130CF
:100DA00009F088C0109232030E9447036B017C0156
:100DB000809133038093BB0080915A0390915B0331
:100DC000A0915C03B0915D03892B8A2B8B2BA1F042
:100DD0000E94470300915A0310915B0320915C032A
:100DE00030915D036C197D098E099F09061717075D
:100DF0002807390708F442C08091BC0083FDD8CF92
:100E000085EC8093BC000E9447036B017C018091BC
:100E10005803823009F450C0809156038F3F09F483
:100E20006FC080915603803209F46CC080915603E4
:100E3000803309F469C084E026C080915A03909100
:100E40005B03A0915C03B0915D03892B8A2B8B2BF4
:100E500009F484CF0E94470380905A0390905B036B
:100E6000A0905C03B0905D036C197D098E099F0909
:100E700086169706A806B90608F070CF8091590328
:100E80000E94750685E010925F0310928103109214
:100E90005E03DF91CF911F910F91FF90EF90DF9054
:100EA000CF90BF90AF909F908F9008959D91919318
:100EB0008F5F69CF85EEA5CF80915A0390915B0338
:100EC000A0915C03B0915D03892B8A2B8B2B09F4D5
:100ED0009ECF0E94470300915A0310915B0320911B
:100EE0005C0330915D036C197D098E099F0906171B
:100EF00017072807390708F08ACFC0CF81E0C3CF92
:100F000080E0C1CF82E0BFCF83E0BDCF08950895D8
:100F10000895E0919A0280919902E81730F4F0E088
:100F2000E758FD4F808190E008958FEF9FEF08957F
:100F300090919A02809199022FEF3FEF981748F411
:100F4000E92FF0E0E758FD4F208130E09F5F90935C
:100F50009A02C90108958091990290919A02891B81
:100F6000990B0895CF92DF92EF92FF920F931F9308
:100F7000CF93DF937C01CB018A0120915E03222372
:100F800089F0EB016B01C40ED51ECC15DD0569F0AF
:100F90006991D701ED91FC910190F081E02DC7019D
:100FA0000995F3CF642F0E943006C801DF91CF91DD
:100FB0001F910F91FF90EF90DF90CF900895CF9306
:100FC000DF931F92CDB7DEB7698320915E032223A2
:100FD000F9F020918103203258F021E030E0FC014B
:100FE0003383228390E080E00F90DF91CF910895CA
:100FF00080915F03E82FF0E0E05AFC4F99819083E5
:101000008F5F80935F038093810381E090E0ECCF5A
:1010100061E0CE0101960E943006F7CF90E080E0BB
:101020000895DF92EF92FF920F931F93CF93DF9378
:10103000EC01D62E7A01890188818C3008F067C0D6
:1010400061E08D2D0E94F6028881282F30E0F901A1
:10105000EE0FFF1FE20FF31FE151FB4F9D2D9F731A
:101060006081607C692B608320E232E02E193F09A9
:1010700037FF02C02D5F3F4F359527953595279552
:10108000298320E639E0201B310B37FF02C02D5F9A
:101090003F4F35952795359527952A832CE0622F6C
:1010A0000E94AD1B829FB001112430E020E0AB0113
:1010B000420F531FFA01EE0FFF1FE40FF51FE1511E
:1010C000FB4F908196FD16C02F5F3F4F2C303105AE
:1010D00071F781110FC01092800082E0809381002F
:1010E0001092850010928400B19A80916F00826006
:1010F00080936F00E8818E2F90E0FC01EE0FFF1FC0
:10110000E80FF91FE151FB4F808180648083888163
:10111000DF91CF911F910F91FF90EF90DF90089595
:101120005F926F927F928F929F92AF92BF92CF9277
:10113000DF92EF92FF920F931F93CF93DF93833051
:1011400008F061C0D1E0D80FDD0FDD0FDD0F5D2E9F
:10115000D53110F044E1542EC62F082FD8508D2ED3
:10116000912CC401880F991F9C012D5D3B4F5901A3
:10117000D12CC12C10E077247394D515C8F58EEFCF
:101180008D0F8231F8F4F601E80DF91DEA55FB4F99
:1011900090819230B8F48C2F87216624639481115A
:1011A00001C0612C7601EE0CFF1C913089F41729E7
:1011B00037E9E30EF11CF501EE0DFF1D862D90E0E1
:1011C00091838083770CDF5F8FEFC81AD80AD5CF61
:1011D000882371F3F701E956FF4FEA0DFB1D80816B
:1011E0009181019729F362E08D2F0E94F602E0CFF2
:1011F000011119C0F8948BB16C2F68276C7F6123A3
:1012000068276BB97894DF91CF911F910F91FF9070
:10121000EF90DF90CF90BF90AF909F908F907F9096
:101220006F905F9008950130D1F4C123F89495B187
:10123000812F8F73809589239C2F9F73892B85B96C
:1012400088B1612F62956695669563706095682395
:10125000C295C695C695C370C62BC8B9D3CF1F70AB
:10126000F89498B1812F880F880F80958923C12326
:10127000CC0FCC0FC82BF1CF8F929F92AF92BF9221
:10128000CF92DF92EF92FF920F931F93CF93DF9352
:10129000EB01843108F098C0082F10E0F801EA55FE
:1012A000FB4F9081933009F49CC0943009F08CC0BE
:1012B0008250823108F081C0F801E15AFD4FC080B0
:1012C000D12C7601EE0CFF1C4B01603282E07807D6
:1012D0000CF03EC0F701EC0DFD1DEC5EFA4F818174
:1012E000A8E88A2E912C881A910887FD9394880C7F
:1012F000991C880C991C092C000CAA08BB08828137
:1013000028E532E0281B310987FD3395220F331F72
:10131000220F331F032E000C440B550B28193909DB
:101320004A095B09DB01653B710514F0A4EBB0E0F1
:10133000B7FF02C0B0E0A0E00E94451A24EB30E005
:1013400040E050E00E941B1A820E931EA41EB51EA0
:10135000F701EC0DFD1DEC5EFA4F20812C3068F595
:10136000318188E890E0831B910937FD9395880FC0
:10137000991F880F991F881699067CF0328188E59D
:1013800092E0831B910937FD9395880F991F880F71
:10139000991F881699060CF4C4010297880F991FAB
:1013A0004FB7F89430E0F901EE0FFF1FE20FF31F83
:1013B000E151FB4F928381834FBF000F111FF80152
:1013C000E654FB4FD183C083DF91CF911F910F91E2
:1013D000FF90EF90DF90CF90BF90AF909F908F9055
:1013E00008957B01D82F833041F08BEF800F82303E
:1013F00020F087EF800F833058F461E08D2F0E943A
:10140000F602E114F10461F460E08D2F0E94C8023D
:10141000000F111FF801E654FB4FF182E082D4CF98
:101420008FEFE816F10411F461E0EFCFF801E25517
:10143000FF4FE491E33021F148F4E130B9F0E230BC
:10144000D1F080E8E816F1047CF7DECFE73011F147
:10145000E83041F1E430A9F7809180008062809308
:101460008000F0928B00E0928A00D2CF84B5806831
:1014700084BDE7BCCDCF84B5806284BDE8BCC8CF55
:1014800080918000806880938000F0928900E092D3
:101490008800BECF8091B00080688093B000E09259
:1014A000B300B6CF8091B00080628093B000E0922C
:1014B000B400AECF9EEF980F923180F4E82FF0E0A9
:1014C000DF01AA55BB4F9C91913041F4EE0FFF1FF5
:1014D000E654FB4F608371830C94C8020895FF9219
:1014E0000F931F93CF93DF9300D0CDB7DEB7082FB4
:1014F00010E0F801E650FD4F9081F62EF9220D58CC
:101500001D4F411104C0F80190819F1511F12F2D3D
:1015100030E03A832983A0916304B091640410976A
:10152000B1F0682F6F706069ED91FC911197019097
:10153000F081E02DCD01099522E030E0AE014F5F52
:101540005F4F62E070E083E694E00E946B04F80174
:10155000F0820F900F90DF91CF911F910F91FF902C
:101560000895833040F5282F30E0F901E350FD4F16
:101570006083672B01F126503D4FF9016081811195
:1015800006C099B19C7F692341E00C946F0A8130B9
:1015900049F493B126B19F73F0E42F9F9001112479
:1015A000922BF1CF26B130E03595279535952795CB
:1015B0002F706223E9CF0895A82FB0E0A15ABD4F44
:1015C0009C91292F30E0F901EE0FFF1FE20FF31F6E
:1015D000EC5EFA4FE0812E2F30E0F901EE0FFF1F95
:1015E000E20FF31FE151FB4F80818F7B808380915D
:1015F0005D02981308C0992319F0915090935D02F1
:101600008FEF8C9308958823D9F3E0915E02EF5F0A
:10161000E0935E02F0E0E55FFD4F9083F1CFFC01C7
:1016200001900020E9F73197BF01681B790BAC01ED
:1016300081E70C946A05CF93DF93DB0190915D0203
:101640009C3078F530915E02682F70E0FB01E15A22
:10165000FD4F3323E1F0C32FD0E0C55FDD4F88811C
:101660008083315030935E02808123E0829FC001ED
:1016700011248C5E9A4F1A161B0674F41416150664
:101680005CF49A01AD01DF91CF910C941108908325
:101690009F5F90935D02E8CF20E639E040E252E0A0
:1016A000F2CF8DE291E0DF91CF910C940F0B85ED9D
:1016B0008093BC0080915A0390915B03A0915C03DE
:1016C000B0915D030796A11DB11D23E0B695A795C6
:1016D000979587952A95D1F72091BC0024FD03C0EA
:1016E00010925803089540915A0350915B03609102
:1016F0005C0370915D03452B462B472B69F30097E4
:10170000A105B10541F025E32A95F1F70000019705
:10171000A109B109E1CF809159030C9475060F938B
:101720001F93CF93DF93EC0161E088810E94F60262
:1017300060E088810E94C80283E090E00197F1F7A1
:1017400061E088810E94C8028BE490E00197F1F784
:1017500060E088810E94C80260E088810E94F602F1
:10176000888190E0FC01E656FF4F6491FC01EA5746
:10177000FF4FE491F0E0EE0FFF1FE458FF4F85911B
:10178000949100E412E42FE030E0462F0E94F1141F
:10179000611571058105910529F06F5F7F4F8F4FAE
:1017A0009F4F9F708B019C01025011092109310943
:1017B0000E351A4E2105310598F40E941F1B20E0BA
:1017C00030E048E652E40E947E1A0E94F01A9B0123
:1017D0007D836C83C901DF91CF911F910F91089593
:1017E00030E020E0F7CFFF920F931F93CF93DF936A
:1017F0008C01F42EFC01608341838CE090E00E9418
:10180000BF1BEC018F2D90E0FC01E656FF4FE491E9
:10181000EB87FC01EA57FF4FE491F0E0EE0FFF1F6A
:10182000EE58FF4F8591949198878F838FEF8E8329
:1018300061E08F2D0E94F60286E090E09983888314
:1018400082E190E00E94BF1B9B838A83892B21F455
:1018500081E491E00E94F31C30E020E0488159814E
:10186000CA01880F991F840F951F2817390740F464
:10187000EA81FB81E20FF31F10822F5F3F4FEECF13
:101880000E94BF1B9D838C83892B21F481E491E00E
:101890000E94F31C90E080E0488159819A01220F58
:1018A000331F240F351F8217930738F4EC81FD8115
:1018B000E80FF91F10820196EFCFF801D387C28796
:1018C000DF91CF911F910F91FF9008950F931F9378
:1018D000CF93C82F8630C0F490E021E030E0082E8E
:1018E00002C0220F331F0A94E2F740912C0350915B
:1018F0002D036115710561F420953095242335235E
:1019000030932D0320932C03CF911F910F910895B5
:10191000242B352B30932D0320932C032091770219
:101920002111F2CF61357105E1F4809158028111E6
:1019300010C08CE090E00E94BF1B8C014C2F6C2FDC
:101940000E94F30B10935A020093590281E0809396
:1019500058028091590290915A020E948F0BBC014B
:1019600009C06235710561F40E949F036091840390
:10197000709185038C2FCF911F910F910C940A05C4
:101980006335710539F40E949F0360918203709161
:101990008303F0CF0E943203E2CF9F92AF92BF92B7
:1019A000CF92DF92EF92FF920F931F93CF93DF932B
:1019B000C82ED12CE601CD5DDB4FFE01ED57FF4F68
:1019C00090819F3709F49FC0963061F49091760220
:1019D000992341F06630710529F0109276029FEF4D
:1019E000909300017B01182F0EEF080F023108F5CC
:1019F00064307105F1F0F601E15AFD4F80818C30C1
:101A0000C0F490E0FC01EE0FFF1FE80FF91FEC5E41
:101A1000FA4FE0818E2F90E0FC01EE0FFF1FE80FE0
:101A2000F91FE151FB4F808186FF03C0812F0E9487
:101A3000DC0A52EF952E910E85E0891558F061E091
:101A400070E032E0E316F10411F070E060E0892DFF
:101A50000E94660C0231C8F4E12FE695E695E69502
:101A6000F0E0E650FD4F2081312F377081E090E0AB
:101A700001C0880F3A95EAF7E114F10421F03BE048
:101A8000E316F10401F5822B80835601AA0CBB1CDE
:101A9000F501E654FB4F118210828CE0E816F10448
:101AA00008F0CBC0F701E95AF24F0C94B91B770D3F
:101AB000A40D660DBB0DDA0D1D0E110E1D0E1D0EB3
:101AC0001D0E830D8F0D80958223DECF35E03915F5
:101AD000D0F0023120F460E0812F0E94F602CD5751
:101AE000DF4F88818F3779F082E088830CC0023124
:101AF00050F460E0812F0E94F602CD57DF4F8881BD
:101B00008F3709F01882DF91CF911F910F91FF90CD
:101B1000EF90DF90CF90BF90AF909F9008950231EB
:101B200090F762E0812F0E94F602CD57DF4F888147
:101B30008F3711F08BE08883F501E654FB4F81E08D
:101B400090E091838083DFCF0231E8F6FE01ED570C
:101B5000FF4F8081833021F460E0812F0E94C80212
:101B600061E0812F0E94F602CD57DF4F88818F37C9
:101B700051F281E0BACF133049F08BEF810F823000
:101B800028F087EF810F833008F0BDCF61E0812F0F
:101B90000E94F60261E0812F0E94F60260E0812F30
:101BA0000E94C802CD57DF4F88818F3709F4ABCF31
:101BB00083E09BCF023108F0A6CFCD57DF4F88815D
:101BC0008F3711F084E08883F601E15AFD4F808160
:101BD0008F3FA9F090E0FC01EE0FFF1FE80FF91F07
:101BE000EC5EFA4FE0818E2F90E0FC01EE0FFF1FBC
:101BF000E80FF91FE151FB4F808186FD84CF4FEF45
:101C00005FEF6FEF7FEF812FDF91CF911F910F91EA
:101C1000FF90EF90DF90CF90BF90AF909F900C948B
:101C20001B0B1251123008F06ECFCD57DF4F888159
:101C30008F3709F468CF86E058CF8DE591E0DF91CA
:101C4000CF911F910F91FF90EF90DF90CF90BF90B9
:101C5000AF909F900C940F0B0F931F93CF93DF9334
:101C600081E08093770280917602882329F0109298
:101C700076028FEF809300011092FD021092FA021B
:101C8000109273021092FE021092FB0210927402E4
:101C90001092FF021092FC02109275020FE512E002
:101CA000C0E0DFEF82EF8C0F62E070E0863030F052
:101CB0008EEF8C0F823128F461E070E08C2F0E944F
:101CC000CD0CF801D1938F01CF5FC43159F7109239
:101CD0002D0310922C0310925E0210925D0210925E
:101CE0007702DF91CF911F910F9108954F925F92EC
:101CF0006F927F928F929F92AF92BF92DF92EF92FC
:101D0000FF920F931F93CF93DF93D82E8B01D42F85
:101D1000C22F6F3F760709F490C081E080935E0385
:101D2000D092800310925F031092810383EE94E0BF
:101D30000E94DF078C2F0E94960680915B02909193
:101D40005C028230910538F0880F991F880F991F27
:101D500005970197F1F70E9447034B015C018091C1
:101D6000580381116CC0CD2FD13208F0C0E281E060
:101D700080935803809357039FEF909356031092DC
:101D800055039C0F90935403809333039091330336
:101D90008D2D880F892B80933303809132038130FE
:101DA00009F09EC0109232030E9447034B015C0170
:101DB000809133038093BB0080915A0390915B0321
:101DC000A0915C03B0915D03892B8A2B8B2BA1F032
:101DD0000E94470340905A0350905B0360905C035D
:101DE00070905D03681979098A099B0946165706A0
:101DF0006806790608F444C08091BC0083FDD8CF02
:101E000085EC8093BC000E9447034B015C018091EC
:101E10005803813009F466C0809155038C1710F483
:101E2000C0915503A4E3B3E0E9E7F2E080E08C174A
:101E300061F19D9191938F5FFACF00E08CCF8091FB
:101E40005A0390915B03A0915C03B0915D03892BD1
:101E50008A2B8B2B09F483CF0E94470340905A03AF
:101E600050905B0360905C0370905D036819790982
:101E70008A099B09461657066806790608F06FCF4F
:101E8000809159030E947506C0E010929A02C09397
:101E90009902ED2EF12C8C2F90E0E816F9060CF04B
:101EA00043C08EE691E00E940F0BD092180200937F
:101EB000190208E112E0C801885192408E159F0571
:101EC000D4F50F5F1F4F9091990280919A02981755
:101ED00091F183EE94E00E949807F8018183EBCFA3
:101EE00085EE8FCF80915A0390915B03A0915C03A4
:101EF000B0915D03892B8A2B8B2B09F488CF0E942C
:101F0000470340905A0350905B0360905C037090CD
:101F10005D03681979098A099B0946165706680600
:101F2000790608F074CFACCF8E159F050CF0BDCFAD
:101F30008BE891E0B8CFDE5F6D2F70E048E152E0B2
:101F400087E7DF91CF911F910F91FF90EF90DF9086
:101F5000BF90AF909F908F907F906F905F904F90C9
:101F60000C946A05EF92FF920F931F93CF93DF9328
:101F7000162FEA018D3609F417C298F5833509F456
:101F800099C268F4813509F461C2823509F482C2CC
:101F9000DF91CF911F910F91FF90EF9008958936B7
:101FA00009F443C28B36A1F780EF0E9406018CE64C
:101FB0000E940601CEEF84EF8C0F863008F0CAC174
:101FC00082E00E9406018AE00E9406018DEF8C0FDC
:101FD000823008F4C2C189EF8C0F833008F0C3C18E
:101FE000BCC1863709F465C008F049C08F3609F4D2
:101FF00079C1803769F6653058F218818EEF810F0C
:10200000823130F60981EA80FB80CC81E12FF0E05B
:10201000E15AFD4F80818C30C0F490E0FC01EE0F5E
:10202000FF1FE80FF91FEC5EFA4FE0818E2F90E062
:10203000FC01EE0FFF1FE80FF91FE151FB4F8081FC
:1020400086FF03C0812F0E94DC0A80E8C89FA001A0
:1020500011244F0D511D90E8E99EB0011124600F2D
:10206000711D812F0E941B0B64E070E0812FDF91B6
:10207000CF911F910F91FF90EF900C94CD0C88376A
:1020800009F4F1C08A3709F083CF623008F480CFB9
:102090008981E0E88E9F900111248881820F932F1F
:1020A000911D009709F41BC19093020180930101D7
:1020B0006FCF998195FF0AC087EA91E0DF91CF91B8
:1020C0001F910F91FF90EF900C940F0B888131E0DE
:1020D00096FB222720F923279871983099F1E0F494
:1020E000911156CF30935E038093800310925F036B
:1020F0001092810302E00117E8F4FE01E00FF11DE8
:1021000061816795662767958081680F83EE94E00B
:102110000E94DF070E5FEFCF903199F1983109F0FF
:1021200037CF2091000112160CF458C08FEF809326
:1021300000012ECF81E00E94960683E191E0019795
:10214000F1F726CF9A814B816630A1F430E8439FA6
:10215000B0011124690F711D4D81479544274795A2
:102160009C81490FDF91CF911F910F91FF90EF90CC
:102170000C94760E479544274795490F6FEF7FEFF4
:10218000F1CFE0910001E7301CF087EC91E096CFB1
:102190003A819B816630D9F460E8969FA0011124B2
:1021A000430F511D9D819795992797953C81930FDA
:1021B000EF5FE093000135E0E302F0011124EC5FF2
:1021C000FC4F80835283418393832483E1CE979590
:1021D00099279795930F4FEF5FEFEACF90E0622F2B
:1021E000022E000C770B35E0492F50E0641775077D
:1021F00064F0349FF001359FF00D1124EC5FFC4F2B
:102200004081481719F09F5FEFCF90E085E0492F9C
:1022100050E0641775071CF19830F8F4FA01319614
:102220008E9FD0018F9FB00D1124AC5FBC4F3C91AD
:10223000849FF001859FF00D1124EC5FFC4F3083EB
:1022400011964D915C9112975283418313963C9164
:102250001397338314963C9134839F5FD8CF2150DA
:102260002093000195CE623078F0898160E8869FE6
:10227000900111248881820F932F911D009721F0E6
:1022800090935C0280935B0280917602811180CEF4
:10229000C0E08EEE8C0F823028F466E070E08C2F68
:1022A0000E94CD0CCF5FC431A1F781E0809376020C
:1022B00010929A021092990210925F031092810379
:1022C0000E94570686E897E09093BD028093BC0277
:1022D00087E897E09093C1028093C00259CE81E0D5
:1022E00090E0E2CE623008F453CE698170E01230A3
:1022F00091F08A81F0E88F9FC0011124682B792B1F
:10230000133049F08B8190E090E4899F902D8827CD
:102310001124682B792B8881DF91CF911F910F9128
:10232000FF90EF900C943C09C23108F044CE80E05D
:102330000E94060181E00E9406018BE00E940601D6
:1023400081E00E94060181E00E94060181E00E9476
:10235000060131CEC13009F039CE83E00E9406017A
:1023600088E00E940601C23130F484E00E94060138
:102370008EE00E94060180EF8C0F823030F486E000
:102380000E94060181E00E9406018FE70E9406017B
:10239000CF5FC23149F687EFDF91CF911F910F9147
:1023A000FF90EF900C940601662309F4F1CDC881EB
:1023B00080EF0E9406018EE60E9406018C2F0E948B
:1023C0000601C43140F7D0E0FE01EA55FB4F8081A1
:1023D0000E940601CC0FDD1F8E0106541B4FF80131
:1023E00080818F770E940601F801808191819C0194
:1023F0002078232B39F0880F892F881F990B8F772E
:102400000E940601C654DB4F888199819C012227D6
:10241000307C232B09F4BFCF990F880B990F982F8D
:10242000881F8F770E940601B6CF80EF0E940601B9
:102430008AE60E940601C2EF8FE7C63008F48C2FAF
:102440000E940601CF5FC630B9F7A5CF80EF0E948A
:10245000060181E50E940601112309F499CD8091BE
:10246000590290915A02892B71F418818CE090E006
:102470000E94BF1BEC01412F612F0E94F30BD093F0
:102480005A02C09359028091590290915A020E94B7
:102490008F0BC8CF80EF0E94060182E50E940601E3
:1024A000112309F475CD888190E00E949F038091EB
:1024B0008403B8CF80EF0E94060183E50E940601E5
:1024C000112309F465CD888190E00E949F038091DB
:1024D0008203A8CF1F920F920FB60F9211242F9351
:1024E0003F934F935F936F937F938F939F93AF939C
:1024F000BF93EF93FF9386E893E00E94E701FF917B
:10250000EF91BF91AF919F918F917F916F915F916B
:102510004F913F912F910F900FBE0F901F901895E4
:102520001F920F920FB60F9211242F938F939F93A8
:10253000EF93FF93E0919603F09197038081E091F0
:102540009C03F0919D0382FD1BC0908180919F03AD
:102550008F5F8F732091A003821741F0E0919F035A
:10256000F0E0EA57FC4F958F80939F03FF91EF9126
:102570009F918F912F910F900FBE0F901F901895E4
:102580008081F4CF1F920F920FB60F9211242F93D8
:102590003F938F939F93AF93BF938091000390914C
:1025A0000103A0910203B09103033091E50223E0FF
:1025B000230F2D3758F50196A11DB11D2093E5027B
:1025C0008093000390930103A0930203B09303034D
:1025D0008091E6029091E702A091E802B091E902B1
:1025E0000196A11DB11D8093E6029093E702A0938E
:1025F000E802B093E902BF91AF919F918F913F9113
:102600002F910F900FBE0F901F90189526E8230F63
:102610000296A11DB11DD2CF1F920F920FB60F923D
:1026200011240F900FBE0F901F9018951F920F92BC
:102630000FB60F9211242F933F934F935F936F9395
:102640007F938F939F93AF93BF93EF93FF9380916B
:10265000B900887F803609F44AC0F0F5883209F461
:10266000A7C018F5803109F49BC0B8F4882309F499
:10267000F9C0883009F494C0FF91EF91BF91AF91F8
:102680009F918F917F916F915F914F913F912F918A
:102690000F900FBE0F901F901895883109F488C0D5
:1026A000803251F78093560314C0803409F49DC0E2
:1026B00040F48033B9F38833F9F68093560385EC00
:1026C000B0C0803509F485C0883509F496C08834D7
:1026D00099F60E94570BD0CF883909F48CC038F591
:1026E000883729F050F4883611F0803729F683E0D6
:1026F000809358031092E20257C0883809F47BC0D7
:10270000803919F0803809F0B7CF8091E202803229
:1027100008F071C0E091E20281E08E0F8093E20246
:102720008091BB00F0E0EE53FD4F80833DC0803BC5
:1027300039F0E0F4803A09F479C0883A09F09CCF86
:1027400084E0809358031092BF021092BE02E09181
:10275000BC02F091BD0209958091BE0281110FC0AB
:1027600081E08093BE0210929C0209C0803C09F473
:10277000A6CF883C09F4A3CF883B09F07DCFE09138
:10278000BF0281E08E0F8093BF02F0E0E456FD4F60
:1027900080818093BB009091BF028091BE0229C0CE
:1027A000809133038093BB0085EC8093BC0064CFA1
:1027B0009091550380915403981758F5E091550373
:1027C00081E08E0F80935503F0E0EC5CFC4F80813C
:1027D000E9CFE091550381E08E0F809355038091FE
:1027E000BB00F0E0EC5CFC4F80839091550380913E
:1027F00054039817C8F285E8D8CFE091550381E0DB
:102800008E0F809355038091BB00F0E0EC5CFC4F91
:1028100080838091570381115CCF81E080933203E4
:1028200084EA8093BC001092580326CF85EC8093F5
:10283000BC00109258038091E202803230F4E091A3
:10284000E202F0E0EE53FD4F10826091E20270E090
:10285000E091C002F091C10282EC92E009951092E1
:10286000E2020ACF1092560334CF1F920F920FB696
:102870000F9211242F933F934F935F936F937F9306
:102880008F939F93AF93BF93CF93DF93EF93FF9378
:1028900080917802C0911305D0E087FF24C0109288
:1028A000850010928400809178028F5F8093780277
:1028B00080917802082E000C990B8C179D0724F448
:1028C000809178028C30C4F18091840090918500D1
:1028D000049680349C4908F47AC0809184009091D9
:1028E0008500049676C080917802082E000C990B22
:1028F0008C179D07C4F6E09178028E2FEE0F990B8E
:10290000FC01EE0FFF1FE80FF91FE151FB4F808123
:1029100086FFC9CFE09178028E2FEE0F990BFC0154
:10292000EE0FFF1FE80FF91FE151FB4F808160E0C0
:102930008F730E94C802B7CF209184003091850028
:10294000E09178028E2FEE0F990BFC01EE0FFF1F26
:10295000E80FF91FE151FB4F81819281820F931F94
:102960009093890080938800E09178028E2FEE0F7B
:10297000990BFC01EE0FFF1FE80FF91FE151FB4F10
:10298000808186FF11C0E09178028E2FEE0F990BA7
:10299000FC01EE0FFF1FE80FF91FE151FB4F808193
:1029A00061E08F730E94C802FF91EF91DF91CF9198
:1029B000BF91AF919F918F917F916F915F914F9157
:1029C0003F912F910F900FBE0F901F90189580E4AC
:1029D0009CE990938900809388008FEF8093780220
:1029E000E3CFCF92DF92EF92FF920F931F93E82FE6
:1029F000F92F05C0015011092109310961F19081B8
:102A000096239417B9F305C0015011092109310922
:102A100011F1908196239413F7CFC12CD12CE12C86
:102A2000F12C0AC08FEFC81AD80AE80AF80A0C1568
:102A30001D052E053F0579F080818623841791F3CB
:102A40006C2D7D2D8E2D9F2D1F910F91FF90EF905E
:102A5000DF90CF90089560E070E080E090E01F91FB
:102A60000F91FF90EF90DF90CF900895109289031F
:102A70001092880348EE53E060E070E040938A03D0
:102A800050938B0360938C0370938D038DE091E0E2
:102A9000909387038093860385EC90E09093930353
:102AA0008093920384EC90E0909395038093940339
:102AB00080EC90E0909397038093960381EC90E0F4
:102AC000909399038093980382EC90E090939B03FA
:102AD00080939A0386EC90E090939D0380939C03EF
:102AE00010929F031092A0031092A1031092A203D0
:102AF00083E294E01092640410926304909367045C
:102B00008093660420E430E03093690420936804E5
:102B100010926A0410926B0410926D0410926C046F
:102B200010926E041092700410926F04109272044E
:102B3000109271041092740410927304109276042F
:102B400010927504109278041092770410927A040F
:102B50001092790410927C0410927B0410928204EB
:102B600010928104109284041092830410928604BF
:102B70001092850410928804109287041092960493
:102B800010929504109265041092A3041092A5046B
:102B90001092A4041092E2042CE830E030938A04EE
:102BA0002093890426E930E030938C0420938B0431
:102BB00020EA30E030938E0420938D042AEA30E03E
:102BC0003093900420938F0424EB30E030939204F0
:102BD000209391042EEB30E03093940420939304DF
:102BE00028EC30E0309398042093970429EC30E0EF
:102BF00030939A04209399042BE236E030939C049E
:102C000020939B0490937E0480937D0422E631E020
:102C100030939E0420939D049093800480937F04BE
:102C200084ED90E09093A00480939F041092E604BA
:102C30001092E5044093E7045093E8046093E9049C
:102C40007093EA048FE191E09093E4048093E304AD
:102C5000E4E1F5E02FEF48EB5BE0809113058C3069
:102C6000B8F491E0980F90931305808390E0DC0115
:102C7000AA0FBB1FA80FB91FA151BB4F12965C939F
:102C80004E931197339685E0E833F80731F70895AE
:102C90002083F8CF789484B5826084BD84B5816048
:102CA00084BD85B5826085BD85B5816085BD809117
:102CB0006E00816080936E0010928100809181008F
:102CC0008260809381008091810081608093810087
:102CD000809180008160809380008091B100846049
:102CE0008093B1008091B00081608093B0008091AA
:102CF0007A00846080937A0080917A008260809369
:102D00007A0080917A00816080937A0080917A00C5
:102D1000806880937A001092C10081E18093A304BF
:102D20008091A4049091A5040E945B1CC091A3040F
:102D3000D0E0CE0101960E94BF1B9093A504809322
:102D4000A404FC01EC0FFD1F108212E0DC011C93B7
:102D500025E011962C93AE01425051096CEF71E0C1
:102D600002960E94E41C8CE399E09093F502809314
:102D7000F40280E998E09093F3028093F20286E6F1
:102D80009CE09093F1028093F00281EB9AE09093A3
:102D9000EF028093EE028DEC9CE09093ED02809325
:102DA000EC028AE59AE09093EB028093EA0282EBD0
:102DB0009FE09093F7028093F6028CE29EE090935E
:102DC000F9028093F802E0919603F0919703108343
:102DD000E0919603F09197031082E0919203F091B5
:102DE00093031082E0919403F091950380E1808336
:102DF00010929E03E0919A03F0919B0386E08083FA
:102E0000E0919803F0919903808180618083E09143
:102E10009803F0919903808188608083E091980302
:102E2000F0919903808180688083E0919803F0910C
:102E3000990380818F7D80838091E20481114FC04E
:102E400061E08DE00E94F60262ED70E080E090E0CB
:102E50000E946C0361E08DE00E94C80268E270E0AD
:102E600080E090E00E946C0360E08DE00E94C80268
:102E700062ED70E080E090E00E946C0361E08DE024
:102E80000E94C80268E270E080E090E00E946C035B
:102E900060E08DE00E94C8026AEF70E080E090E0A0
:102EA0000E946C03C5E062ED70E080E090E00E945B
:102EB0006C0361E08DE00E94C80268E270E080E08F
:102EC00090E00E946C0360E08DE00E94C802C15057
:102ED00051F76DE770E080E090E00E946C0386E8B7
:102EE00093E09093A2048093A10490936404809350
:102EF000630483E694E00E94DC0083E294E00E9495
:102F0000B7050E942C0E25E0D22EC0E0D0E0CC24E4
:102F1000C39402E010E0EE24E394F12C8091FD02D2
:102F2000882349F069B18091FA0268236C7F40E000
:102F300080E00E946F0A8091FE02882379F063B1DD
:102F400086B16F73B0E48B9FC0011124682B809110
:102F5000FB02682340E081E00E946F0A8091FF023B
:102F6000882359F066B18091FC028F706695669552
:102F7000682340E082E00E946F0A8091A104909152
:102F8000A204DC01ED91FC910084F185E02D09950E
:102F9000892B09F4CEC18091A1049091A204DC0197
:102FA000ED91FC910284F385E02D09959C018F3F02
:102FB000980719F3982F80916E04882309F492C022
:102FC000973F09F07EC010926E04A0916604B09104
:102FD00067046C916137C1F1693709F05CC0E09119
:102FE0009B04F0919C04309741F280916F04909182
:102FF00070048330910560F430E020E050E040E060
:1030000070E060E080917D0490917E040995B5CFD9
:10301000BD016D5F7F4F03970E944301BC016D5F4F
:103020007F4F80E00E941301E0916604F0916704F5
:103030009F012D5F3F4F428150E0618170E0E09140
:103040009B04F0919C04DECF8091970490919804AA
:10305000892B09F492CFBD016F5F7F4F80916F0480
:103060009091700401970E944301BC016F5F7F4FF4
:1030700080E00E94130160916604709167046F5FA5
:103080007F4FE0919704F091980480918304909190
:103090008404099572CFE0919904F0919A043097D5
:1030A00009F46BCF9D012F5F3F4F40916F0450910A
:1030B00070044150510980918504909186040995CE
:1030C0005CCF60916F0470917004822F0E94130195
:1030D00080916F0490917004019690937004809396
:1030E0006F044BCF60916C0470916D046115710594
:1030F00009F4B1C027FDAFC06150710970936D0430
:1031000060936C04822F0E94130180916C04909153
:103110006D04892B09F031CF80916A04882309F46A
:103120002CCF803D09F483C040F4803949F1803CC4
:1031300009F469C010926A0420CF843FE1F1853F11
:1031400009F44DC0803EB1F7E0918904F0918A0402
:10315000309781F3A0916604B09167044C9120E808
:10316000429FC001112411964C91480F592F511DB7
:1031700060916B0480917104909172040995DACF8B
:10318000E0918B04F0918C043097A1F2A091660439
:10319000B09167044C9120E8429FC0011124119620
:1031A0004C91480F592F511D60916B04809173040D
:1031B00090917404E3CFE0919104F09192043097E0
:1031C00009F4B8CFA0916604B09167044C9150E027
:1031D00011966C918091790490917A04CFCFE0910F
:1031E0009304F0919404309709F4A4CFA09166045D
:1031F000B09167044C9150E011966C9180917B04E2
:1032000090917C04BBCFE0918D04F0918E043097B7
:1032100009F490CFA0916604B09167044C9150E0FE
:1032200060916B048091750490917604A7CFE09132
:103230008F04F0919004309709F47CCFA09166043C
:10324000B09167044C9150E060916B0480917704D9
:103250009091780493CF903F30F4822F8F708093B9
:103260006B04922F907F903FF1F190F4903CB1F17C
:1032700050F4903909F081CE10936D0400936C04E2
:1032800090936A047ACE903D49F1903EA9F375CEB1
:10329000993F09F442C028F48CE0890F823060F332
:1032A0006CCE9F3F09F069CE10926D0410926C04B1
:1032B00010926A0410926B0490E080E02091680400
:1032C0003091690482179307A8F4E0916604F091A5
:1032D0006704E80FF91F10820196F0CFF0926D0499
:1032E000E0926C04CDCFC0926E04109270041092E4
:1032F0006F0443CE10926E041092700410926F040B
:10330000E0919F04F091A00480918704909188043B
:10331000309709F432CE099530CEE0919D04F091BA
:103320009E04309709F429CE80917F049091800407
:10333000F2CF8FB7F8948090000390900103A09093
:103340000203B09003038FBF80912E0390912F034F
:10335000A0913003B09131034091010150910201DD
:1033600070E060E0881A990AAA0ABB0A4815590554
:103370006A057B0508F054C0840F951FA61FB71F70
:1033800080932E0390932F03A0933003B0933103C7
:1033900083E2882E84E0982E92EFB92E85E08B157B
:1033A000C8F0F401ED57FF4F8081823099F480918D
:1033B0002C0390912D030B2C02C0959587950A94B0
:1033C000E2F780FF07C08B2D0E943203BC018B2DDA
:1033D0000E940A05B394AFEF8A1A9A0AB6E0BB12AC
:1033E000DDCF8091000187FD1BC0B12C2B2D30E07B
:1033F00080910001082E000C990B8217930784F02E
:10340000D29EF001D39EF00D1124EC5FFC4F618140
:1034100072812481438180810E94760EB394E6CF2D
:10342000209709F47BCD0E94D301882309F476CD3F
:103430000E94000073CD052E97FB1EF400940E949D
:10344000321A57FD07D00E944D1A07FC03D04EF4E4
:103450000C94321A50954095309521953F4F4F4F1F
:103460005F4F089590958095709561957F4F8F4F30
:103470009F4F08950E946F1AA59F900DB49F900DC5
:10348000A49F800D911D11240895B7FF0C943A1A42
:103490000E943A1A821B930B0895A1E21A2EAA1BCE
:1034A000BB1BFD010DC0AA1FBB1FEE1FFF1FA217F4
:1034B000B307E407F50720F0A21BB30BE40BF50BF1
:1034C000661F771F881F991F1A9469F7609570957A
:1034D000809590959B01AC01BD01CF010895A29FFD
:1034E000B001B39FC001A39F700D811D1124911DD8
:1034F000B29F700D811D1124911D08950E94921A92
:103500000C94731B0E946C1B58F00E94651B40F0CA
:1035100029F45F3F29F00C945C1B51110C94A71BFC
:103520000C94621B0E94841B68F39923B1F355230A
:1035300091F3951B550BBB27AA27621773078407C6
:1035400038F09F5F5F4F220F331F441FAA1FA9F35C
:1035500035D00E2E3AF0E0E832D091505040E6954A
:10356000001CCAF72BD0FE2F29D0660F771F881FAB
:10357000BB1F261737074807AB07B0E809F0BB0B9E
:10358000802DBF01FF2793585F4F3AF09E3F5105B2
:1035900078F00C945C1B0C94A71B5F3FE4F3983EFF
:1035A000D4F3869577956795B795F7959F5FC9F79B
:1035B000880F911D9695879597F90895E1E0660F1C
:1035C000771F881FBB1F621773078407BA0720F095
:1035D000621B730B840BBA0BEE1F88F7E0950895FE
:1035E0000E948C1B88F09F5798F0B92F9927B751EC
:1035F000B0F0E1F0660F771F881F991F1AF0BA9597
:10360000C9F714C0B13091F00E94A61BB1E0089533
:103610000C94A61B672F782F8827B85F39F0B93F25
:10362000CCF3869577956795B395D9F73EF4909549
:103630008095709561957F4F8F4F9F4F0895E894C7
:1036400009C097FB3EF490958095709561957F4FEA
:103650008F4F9F4F9923A9F0F92F96E9BB27939598
:10366000F695879577956795B795F111F8CFFAF4A8
:10367000BB0F11F460FF1BC06F5F7F4F8F4F9F4FD9
:1036800016C0882311F096E911C0772321F09EE837
:10369000872F762F05C0662371F096E8862F70E09D
:1036A00060E02AF09A95660F771F881FDAF7880F77
:1036B0009695879597F9089597F99F6780E870E048
:1036C00060E008959FEF80EC089500240A94161698
:1036D000170618060906089500240A941216130600
:1036E000140605060895092E0394000C11F488238E
:1036F00052F0BB0F40F4BF2B11F460FF04C06F5FAA
:103700007F4F8F4F9F4F089557FD9058440F551F7F
:1037100059F05F3F71F04795880F97FB991F61F053
:103720009F3F79F087950895121613061406551FCA
:10373000F2CF4695F1DF08C0161617061806991F36
:10374000F1CF86957105610508940895E894BB272B
:1037500066277727CB0197F90895991B79E004C074
:10376000991F961708F0961B881F7A95C9F78095C0
:103770000895EE0FFF1F0590F491E02D09940F932B
:103780001F93CF93DF938230910510F482E090E095
:10379000E0913A05F0913B0530E020E0B0E0A0E098
:1037A000309799F42115310509F44AC0281B390BCB
:1037B00024303105D8F58A819B816115710589F125
:1037C000FB0193838283FE0111C0408151810281FC
:1037D000138148175907E0F04817590799F41097D3
:1037E00061F012960C93129713961C933296CF01A8
:1037F000DF91CF911F910F91089500933A05109397
:103800003B05F4CF2115310551F04217530738F02D
:10381000A901DB019A01BD01DF01F801C1CFEF0170
:10382000F9CF90933B0580933A05CDCFFE01E20F8F
:10383000F31F819391932250310939832883D7CF85
:103840002091380530913905232B41F42091050151
:1038500030910601309339052093380520910301FA
:10386000309104012115310541F42DB73EB7409147
:10387000070150910801241B350BE0913805F091A8
:103880003905E217F307A0F42E1B3F0B2817390761
:1038900078F0AC014E5F5F4F2417350748F04E0FAC
:1038A0005F1F5093390540933805819391939FCFC3
:1038B000F0E0E0E09CCFCF93DF930097E9F0FC01CC
:1038C000329713821282A0913A05B0913B05ED0127
:1038D00030E020E01097A1F420813181820F931F06
:1038E00020913805309139052817390709F061C052
:1038F000F0933905E0933805DF91CF910895EA01FF
:10390000CE17DF07E8F54A815B819E01411551051D
:10391000B1F7E901FB83EA8349915991C40FD51F9F
:10392000EC17FD0761F4808191810296840F951F49
:10393000E90199838883828193819B838A83F0E064
:10394000E0E012968D919C9113970097B9F52D9117
:103950003C911197CD010296820F931F209138055B
:10396000309139052817390739F6309751F51092FB
:103970003B0510923A05B0933905A0933805BCCFAA
:10398000D383C28340815181840F951FC817D90703
:1039900061F44E5F5F4F88819981480F591F5183B1
:1039A00040838A819B81938382832115310509F0AD
:1039B000B0CFF0933B05E0933A059ECFFD01DC01CB
:1039C000C0CF13821282D7CFFB01DC01415050409F
:1039D00048F001900D920020C9F701C01D9241509E
:1039E0005040E0F708950F931F93CF93DF93E0913A
:1039F0003E05F0913F052381EC0110E000E021FD40
:103A000008C00FEF1FEF14C00995892B11F00FEFBD
:103A10001FEF899160913E0570913F05DB0118967B
:103A2000ED91FC918111F0CF8AE00995892B49F73E
:103A3000C801DF91CF911F910F910895F894FFCFA6
:103A4000FF13000000420580000000000009026929
:103A50000196015602C701A501B90100000000DF6F
:103A600007B2070E088807AB07980789074D6178EA
:103A700020736572766F7320617474616368656426
:103A8000005468657265206973206E6F7420656EDE
:103A90006F756768207370616365210D00556E6BEB
:103AA0006E6F776E2070696E206D6F6465004932AD
:103AB000433A20546F6F206D616E7920627974658E
:103AC00073207265636569766564004932433A2004
:103AD000546F6F2066657720627974657320726514
:103AE0006365697665640031302D626974206164B4
:103AF0006472657373696E67206E6F74207375707E
:103B0000706F7274656400746F6F206D616E7920E0
:103B100071756572696573002F55736572732F68CF
:103B200068616F79752F446F776E6C6F6164732F66
:103B30004669726D617461546573742F4669726D64
:0C3B4000617461546573742E696E6F002F
:00000001FF
